:100F2800952F03138316003086000313831286015E
:100F3800031383120614C830A200FA30A10001304E
:100F4800A00000000000A00BA52FA10BA32FA20B4F
:100F5800A12F031383120610031383128614C830BB
:100F6800A200FA30A1000130A00000000000A00B90
:100F7800B92FA10BB72FA20BB52F0313831286101D
:100F8800031383120615C830A200FA30A1000130FD
:100F9800A00000000000A00BCD2FA10BCB2FA20BAF
:100FA800C92F031383120611031383128615C83041
:100FB800A200FA30A1000130A00000000000A00B40
:100FC800E12FA10BDF2FA20BDD2F03138312861154
:100FD8001930A3000A30A40023082407A500031829
:100FE800A601031C0130A60025088600FF30A800D2
:080FF8000000A80BFC2F9C2F48
:02400E00713F00
:00000001FF
